{
  "_format": "hh-sol-artifact-1",
  "contractName": "ECommerce",
  "sourceName": "contracts/ECommerce.sol",
  "abi": [
    {
      "inputs": [],
      "stateMutability": "nonpayable",
      "type": "constructor"
    },
    {
      "anonymous": false,
      "inputs": [
        {
          "indexed": false,
          "internalType": "uint256",
          "name": "amount",
          "type": "uint256"
        },
        {
          "indexed": false,
          "internalType": "address",
          "name": "owner",
          "type": "address"
        }
      ],
      "name": "CommissionWithdrawn",
      "type": "event"
    },
    {
      "anonymous": false,
      "inputs": [
        {
          "indexed": false,
          "internalType": "uint256",
          "name": "price",
          "type": "uint256"
        },
        {
          "indexed": false,
          "internalType": "uint128",
          "name": "id",
          "type": "uint128"
        },
        {
          "indexed": false,
          "internalType": "uint128",
          "name": "quantity",
          "type": "uint128"
        },
        {
          "indexed": false,
          "internalType": "address",
          "name": "seller",
          "type": "address"
        },
        {
          "indexed": false,
          "internalType": "string",
          "name": "name",
          "type": "string"
        }
      ],
      "name": "ProductAdded",
      "type": "event"
    },
    {
      "anonymous": false,
      "inputs": [
        {
          "indexed": false,
          "internalType": "uint256",
          "name": "price",
          "type": "uint256"
        },
        {
          "indexed": false,
          "internalType": "uint128",
          "name": "id",
          "type": "uint128"
        },
        {
          "indexed": false,
          "internalType": "uint128",
          "name": "quantity",
          "type": "uint128"
        },
        {
          "indexed": false,
          "internalType": "address",
          "name": "buyer",
          "type": "address"
        },
        {
          "indexed": false,
          "internalType": "string",
          "name": "name",
          "type": "string"
        }
      ],
      "name": "ProductPurchased",
      "type": "event"
    },
    {
      "inputs": [
        {
          "internalType": "string",
          "name": "name",
          "type": "string"
        },
        {
          "internalType": "uint256",
          "name": "price",
          "type": "uint256"
        },
        {
          "internalType": "uint128",
          "name": "quantity",
          "type": "uint128"
        }
      ],
      "name": "addProduct",
      "outputs": [],
      "stateMutability": "nonpayable",
      "type": "function"
    },
    {
      "inputs": [],
      "name": "getAllProduct",
      "outputs": [
        {
          "internalType": "string[]",
          "name": "",
          "type": "string[]"
        },
        {
          "internalType": "uint256[]",
          "name": "",
          "type": "uint256[]"
        }
      ],
      "stateMutability": "view",
      "type": "function"
    },
    {
      "inputs": [],
      "name": "productCount",
      "outputs": [
        {
          "internalType": "uint128",
          "name": "",
          "type": "uint128"
        }
      ],
      "stateMutability": "view",
      "type": "function"
    },
    {
      "inputs": [
        {
          "internalType": "uint128",
          "name": "_id",
          "type": "uint128"
        },
        {
          "internalType": "uint128",
          "name": "_quantity",
          "type": "uint128"
        }
      ],
      "name": "purchaseProduct",
      "outputs": [],
      "stateMutability": "payable",
      "type": "function"
    }
  ],
  "bytecode": "0x608060405234801561001057600080fd5b50600280546001600160a01b03191633179055610d57806100326000396000f3fe60806040526004361061003f5760003560e01c80632ff52b9714610044578063c4d00a1414610059578063d055a75f14610079578063e0f6ef87146100a5575b600080fd5b610057610052366004610988565b6100dd565b005b34801561006557600080fd5b506100576100743660046109d1565b6104be565b34801561008557600080fd5b5061008e6106e9565b60405161009c929190610ae9565b60405180910390f35b3480156100b157600080fd5b506001546100c5906001600160801b031681565b6040516001600160801b03909116815260200161009c565b6000826001600160801b031611801561010557506001546001600160801b0390811690831611155b61014c5760405162461bcd60e51b815260206004820152601360248201527224b73b30b634b210383937b23ab1ba1024a21760691b60448201526064015b60405180910390fd5b6000816001600160801b0316116101755760405162461bcd60e51b815260040161014390610b84565b600080610183600185610bdd565b6001600160801b03168154811061019c5761019c610c05565b60009182526020918290206040805160a08101825260049093029091018054835260018101546001600160801b0380821695850195909552600160801b90049093169082015260028201546001600160a01b0316606082015260038201805491929160808401919061020d90610c1b565b80601f016020809104026020016040519081016040528092919081815260200182805461023990610c1b565b80156102865780601f1061025b57610100808354040283529160200191610286565b820191906000526020600020905b81548152906001019060200180831161026957829003601f168201915b5050505050815250509050816001600160801b031681604001516001600160801b031610156102f75760405162461bcd60e51b815260206004820181905260248201527f496e73756666696369656e74207175616e7469747920617661696c61626c652e6044820152606401610143565b8051600090610310906001600160801b03851690610c56565b9050803410156103585760405162461bcd60e51b815260206004820152601360248201527224b739bab33334b1b4b2b73a10333ab732399760691b6044820152606401610143565b826000610366600187610bdd565b6001600160801b03168154811061037f5761037f610c05565b906000526020600020906004020160010160108282829054906101000a90046001600160801b03166103b19190610bdd565b92506101000a8154816001600160801b0302191690836001600160801b03160217905550600060643460046103e69190610c56565b6103f09190610c75565b6002546040519192506001600160a01b03169082156108fc029083906000818181858888f1935050505015801561042b573d6000803e3d6000fd5b5060608301516001600160a01b03166108fc6104478334610c97565b6040518115909202916000818181858888f1935050505015801561046f573d6000803e3d6000fd5b507ff9bd492dc0f6132fbf8e7ab844b1df7ae4c2e6ba27c5d2542b52af007b00fe20836000015186863387608001516040516104af959493929190610cae565b60405180910390a15050505050565b6000821161050e5760405162461bcd60e51b815260206004820181905260248201527f5072696365206d7573742062652067726561746572207468616e207a65726f2e6044820152606401610143565b6000816001600160801b0316116105375760405162461bcd60e51b815260040161014390610b84565b600180546001600160801b031690600061055083610cfa565b82546101009290920a6001600160801b038181021990931691831602179091556040805160a08101825285815260018054841660208084019182528786169484019485523360608501908152608085018b8152600080549586018155805285517f290decd9548b62a8d60345a988386fc84ba6bc95484008f6362f93160ef3e563600490960295860190815593519651968816600160801b9790981696909602969096177f290decd9548b62a8d60345a988386fc84ba6bc95484008f6362f93160ef3e56484015594517f290decd9548b62a8d60345a988386fc84ba6bc95484008f6362f93160ef3e565830180546001600160a01b0319166001600160a01b03909216919091179055925180519295509293610694937f290decd9548b62a8d60345a988386fc84ba6bc95484008f6362f93160ef3e566909201929101906108d3565b50506001546040517f0ea10d55725e837a5f30cb6f6d872c437b51efa7b0f7f2af4922372ad64ab2cb92506106dc9185916001600160801b0390911690859033908990610cae565b60405180910390a1505050565b60015460609081906000906001600160801b031667ffffffffffffffff811115610715576107156109bb565b60405190808252806020026020018201604052801561074857816020015b60608152602001906001900390816107335790505b506001549091506000906001600160801b031667ffffffffffffffff811115610773576107736109bb565b60405190808252806020026020018201604052801561079c578160200160208202803683370190505b50905060005b6001546001600160801b03168110156108c957600081815481106107c8576107c8610c05565b906000526020600020906004020160030180546107e490610c1b565b80601f016020809104026020016040519081016040528092919081815260200182805461081090610c1b565b801561085d5780601f106108325761010080835404028352916020019161085d565b820191906000526020600020905b81548152906001019060200180831161084057829003601f168201915b505050505083828151811061087457610874610c05565b60200260200101819052506000818154811061089257610892610c05565b9060005260206000209060040201600001548282815181106108b6576108b6610c05565b60209081029190910101526001016107a2565b5090939092509050565b8280546108df90610c1b565b90600052602060002090601f0160209004810192826109015760008555610947565b82601f1061091a57805160ff1916838001178555610947565b82800160010185558215610947579182015b8281111561094757825182559160200191906001019061092c565b50610953929150610957565b5090565b5b808211156109535760008155600101610958565b80356001600160801b038116811461098357600080fd5b919050565b6000806040838503121561099b57600080fd5b6109a48361096c565b91506109b26020840161096c565b90509250929050565b634e487b7160e01b600052604160045260246000fd5b6000806000606084860312156109e657600080fd5b833567ffffffffffffffff808211156109fe57600080fd5b818601915086601f830112610a1257600080fd5b813581811115610a2457610a246109bb565b604051601f8201601f19908116603f01168101908382118183101715610a4c57610a4c6109bb565b81604052828152896020848701011115610a6557600080fd5b82602086016020830137600060208483010152809750505050505060208401359150610a936040850161096c565b90509250925092565b6000815180845260005b81811015610ac257602081850181015186830182015201610aa6565b81811115610ad4576000602083870101525b50601f01601f19169290920160200192915050565b6000604082016040835280855180835260608501915060608160051b8601019250602080880160005b83811015610b4057605f19888703018552610b2e868351610a9c565b95509382019390820190600101610b12565b50508584038187015286518085528782019482019350915060005b82811015610b7757845184529381019392810192600101610b5b565b5091979650505050505050565b60208082526023908201527f5175616e74697479206d7573742062652067726561746572207468616e207a6560408201526239379760e91b606082015260800190565b634e487b7160e01b600052601160045260246000fd5b60006001600160801b0383811690831681811015610bfd57610bfd610bc7565b039392505050565b634e487b7160e01b600052603260045260246000fd5b600181811c90821680610c2f57607f821691505b60208210811415610c5057634e487b7160e01b600052602260045260246000fd5b50919050565b6000816000190483118215151615610c7057610c70610bc7565b500290565b600082610c9257634e487b7160e01b600052601260045260246000fd5b500490565b600082821015610ca957610ca9610bc7565b500390565b8581526001600160801b038581166020830152841660408201526001600160a01b038316606082015260a060808201819052600090610cef90830184610a9c565b979650505050505050565b60006001600160801b0380831681811415610d1757610d17610bc7565b600101939250505056fea264697066735822122017a3b29f533a0af581b443ac7cb7d7a7882d7d431780c3be26eb46e7258ea8da64736f6c63430008090033",
  "linkReferences": {},
  "deployedLinkReferences": {}
}